:100000000C942A000C943C000C943C000C943C0092
:100010000C943C000C943C000C943C000C943C0070
:100020000C943C000C943C000C943C000C94B000EC
:100030000C943C000C943C000C943C000C943C0050
:100040000C943C000C943C000C943C000C943C0040
:100050000C943C0011241FBECFE5D4E0DEBFCDBF21
:1000600020E0A0E6B0E001C01D92A636B207E1F79D
:100070000E94DC000C944D010C94000081B380645C
:1000800081BB82B38F7B82BB8FE39CE90197F1F741
:1000900000C0000082B3806482BB089581B38F7B6F
:1000A00081BB8699FECF869BFECF8699FECF0895B1
:1000B00020E030E019C0869BFECF80E58A95F1F7FD
:1000C000869B09C08091600090E0880F991F816035
:1000D0008093600005C080916000880F809360006D
:1000E0008699FECF2F5F3F4F2830310524F3809152
:1000F000600008952AB128692AB920B5266820BD74
:10010000DC01CB01880F991FAA1FBB1F880F991F05
:10011000AA1FBB1F9C01AD01220F331F441F551F97
:10012000220F331F441F551F60E072E18AE790E001
:100130000E942B018FEF820F89B9DA01C901019763
:10014000A109B109892F9A2FAB2FBB2780BD089534
:100150005F9BFECF8CB108955D9BFECF8CB9089557
:100160001F920F920FB60F9211242F933F934F932C
:100170005F936F937F938F939F93AF93BF93EF930F
:10018000FF930E94A800803311F415BA04C0813394
:1001900011F481E085BBFF91EF91BF91AF919F91E9
:1001A0008F917F916F915F914F913F912F910F9020
:1001B0000FBE0F901F90189560E875E280E090E008
:1001C0000E947A0081E084BB78940E943E000E94E5
:1001D0004E000E945800809364000E945800809353
:1001E00061000E945800809363000E945800809331
:1001F00065000E94580080936200909164004091D5
:100200006100292F30E0240F311D40916300240F3D
:10021000311D40916500240F311D482F50E02417F7
:10022000350779F4892F0E94AC00809161000E940B
:10023000AC00809163000E94AC00809165000E9438
:10024000AC002FEF80E792E0215080409040E1F732
:1002500000C00000BACFA1E21A2EAA1BBB1BFD01F1
:100260000DC0AA1FBB1FEE1FFF1FA217B307E40795
:10027000F50720F0A21BB30BE40BF50B661F771FED
:10028000881F991F1A9469F76095709580959095CD
:0E0290009B01AC01BD01CF010895F894FFCF92
:00000001FF
